{
  "contractName": "Lottery",
  "abi": [
    {
      "inputs": [],
      "payable": false,
      "stateMutability": "nonpayable",
      "type": "constructor"
    },
    {
      "anonymous": false,
      "inputs": [
        {
          "indexed": false,
          "internalType": "uint256",
          "name": "index",
          "type": "uint256"
        },
        {
          "indexed": false,
          "internalType": "address",
          "name": "bettor",
          "type": "address"
        },
        {
          "indexed": false,
          "internalType": "uint256",
          "name": "amount",
          "type": "uint256"
        },
        {
          "indexed": false,
          "internalType": "bytes1",
          "name": "challenge",
          "type": "bytes1"
        },
        {
          "indexed": false,
          "internalType": "uint256",
          "name": "answerBlock",
          "type": "uint256"
        }
      ],
      "name": "BET",
      "type": "event"
    },
    {
      "anonymous": false,
      "inputs": [
        {
          "indexed": false,
          "internalType": "uint256",
          "name": "index",
          "type": "uint256"
        },
        {
          "indexed": false,
          "internalType": "address",
          "name": "bettor",
          "type": "address"
        },
        {
          "indexed": false,
          "internalType": "uint256",
          "name": "amount",
          "type": "uint256"
        },
        {
          "indexed": false,
          "internalType": "bytes1",
          "name": "challenges",
          "type": "bytes1"
        },
        {
          "indexed": false,
          "internalType": "uint256",
          "name": "answerBlockNumber",
          "type": "uint256"
        }
      ],
      "name": "DRAW",
      "type": "event"
    },
    {
      "anonymous": false,
      "inputs": [
        {
          "indexed": false,
          "internalType": "uint256",
          "name": "index",
          "type": "uint256"
        },
        {
          "indexed": false,
          "internalType": "address",
          "name": "bettor",
          "type": "address"
        },
        {
          "indexed": false,
          "internalType": "uint256",
          "name": "amount",
          "type": "uint256"
        },
        {
          "indexed": false,
          "internalType": "bytes1",
          "name": "challenges",
          "type": "bytes1"
        },
        {
          "indexed": false,
          "internalType": "bytes1",
          "name": "answer",
          "type": "bytes1"
        },
        {
          "indexed": false,
          "internalType": "uint256",
          "name": "answerBlockNumber",
          "type": "uint256"
        }
      ],
      "name": "FAIL",
      "type": "event"
    },
    {
      "anonymous": false,
      "inputs": [
        {
          "indexed": false,
          "internalType": "uint256",
          "name": "index",
          "type": "uint256"
        },
        {
          "indexed": false,
          "internalType": "address",
          "name": "bettor",
          "type": "address"
        },
        {
          "indexed": false,
          "internalType": "uint256",
          "name": "amount",
          "type": "uint256"
        },
        {
          "indexed": false,
          "internalType": "bytes1",
          "name": "challenges",
          "type": "bytes1"
        },
        {
          "indexed": false,
          "internalType": "uint256",
          "name": "answerBlockNumber",
          "type": "uint256"
        }
      ],
      "name": "REFUND",
      "type": "event"
    },
    {
      "anonymous": false,
      "inputs": [
        {
          "indexed": false,
          "internalType": "uint256",
          "name": "index",
          "type": "uint256"
        },
        {
          "indexed": false,
          "internalType": "address",
          "name": "bettor",
          "type": "address"
        },
        {
          "indexed": false,
          "internalType": "uint256",
          "name": "amount",
          "type": "uint256"
        },
        {
          "indexed": false,
          "internalType": "bytes1",
          "name": "challenges",
          "type": "bytes1"
        },
        {
          "indexed": false,
          "internalType": "bytes1",
          "name": "answer",
          "type": "bytes1"
        },
        {
          "indexed": false,
          "internalType": "uint256",
          "name": "answerBlockNumber",
          "type": "uint256"
        }
      ],
      "name": "WIN",
      "type": "event"
    },
    {
      "constant": true,
      "inputs": [],
      "name": "answerForTest",
      "outputs": [
        {
          "internalType": "bytes32",
          "name": "",
          "type": "bytes32"
        }
      ],
      "payable": false,
      "stateMutability": "view",
      "type": "function"
    },
    {
      "constant": true,
      "inputs": [],
      "name": "owner",
      "outputs": [
        {
          "internalType": "address payable",
          "name": "",
          "type": "address"
        }
      ],
      "payable": false,
      "stateMutability": "view",
      "type": "function"
    },
    {
      "constant": true,
      "inputs": [],
      "name": "getPot",
      "outputs": [
        {
          "internalType": "uint256",
          "name": "pot",
          "type": "uint256"
        }
      ],
      "payable": false,
      "stateMutability": "view",
      "type": "function"
    },
    {
      "constant": false,
      "inputs": [
        {
          "internalType": "bytes1",
          "name": "challenge",
          "type": "bytes1"
        }
      ],
      "name": "betAndDistribute",
      "outputs": [
        {
          "internalType": "bool",
          "name": "",
          "type": "bool"
        }
      ],
      "payable": true,
      "stateMutability": "payable",
      "type": "function"
    },
    {
      "constant": false,
      "inputs": [
        {
          "internalType": "bytes1",
          "name": "challenges",
          "type": "bytes1"
        }
      ],
      "name": "bet",
      "outputs": [
        {
          "internalType": "bool",
          "name": "",
          "type": "bool"
        }
      ],
      "payable": true,
      "stateMutability": "payable",
      "type": "function"
    },
    {
      "constant": false,
      "inputs": [],
      "name": "distribute",
      "outputs": [],
      "payable": false,
      "stateMutability": "nonpayable",
      "type": "function"
    },
    {
      "constant": false,
      "inputs": [
        {
          "internalType": "bytes32",
          "name": "answer",
          "type": "bytes32"
        }
      ],
      "name": "setAnswerForTest",
      "outputs": [
        {
          "internalType": "bool",
          "name": "",
          "type": "bool"
        }
      ],
      "payable": false,
      "stateMutability": "nonpayable",
      "type": "function"
    },
    {
      "constant": true,
      "inputs": [
        {
          "internalType": "bytes1",
          "name": "challenges",
          "type": "bytes1"
        },
        {
          "internalType": "bytes32",
          "name": "answer",
          "type": "bytes32"
        }
      ],
      "name": "isMatch",
      "outputs": [
        {
          "internalType": "enum Lottery.BettingResult",
          "name": "",
          "type": "uint8"
        }
      ],
      "payable": false,
      "stateMutability": "pure",
      "type": "function"
    },
    {
      "constant": true,
      "inputs": [
        {
          "internalType": "uint256",
          "name": "index",
          "type": "uint256"
        }
      ],
      "name": "getBetInfo",
      "outputs": [
        {
          "internalType": "uint256",
          "name": "answerBlockNumber",
          "type": "uint256"
        },
        {
          "internalType": "address",
          "name": "bettor",
          "type": "address"
        },
        {
          "internalType": "bytes1",
          "name": "challenges",
          "type": "bytes1"
        }
      ],
      "payable": false,
      "stateMutability": "view",
      "type": "function"
    },
    {
      "constant": false,
      "inputs": [
        {
          "internalType": "bytes1",
          "name": "challenges",
          "type": "bytes1"
        }
      ],
      "name": "pushBet",
      "outputs": [
        {
          "internalType": "bool",
          "name": "",
          "type": "bool"
        }
      ],
      "payable": true,
      "stateMutability": "payable",
      "type": "function"
    },
    {
      "constant": false,
      "inputs": [
        {
          "internalType": "uint256",
          "name": "index",
          "type": "uint256"
        }
      ],
      "name": "popBet",
      "outputs": [
        {
          "internalType": "bool",
          "name": "",
          "type": "bool"
        }
      ],
      "payable": false,
      "stateMutability": "nonpayable",
      "type": "function"
    }
  ],
  "bytecode": "0x60806040526000600260006101000a81548160ff02191690831515021790555034801561002b57600080fd5b50336000806101000a81548173ffffffffffffffffffffffffffffffffffffffff021916908373ffffffffffffffffffffffffffffffffffffffff1602179055506114a48061007b6000396000f3fe60806040526004361061009c5760003560e01c80638da5cb5b116100645780638da5cb5b1461027f57806399a167d7146102d6578063d04c9a8c1461035f578063e16ea857146103b2578063e4fc6b6d1461041a578063f4b46f5b146104315761009c565b806303282096146100a1578063403c9fa8146101095780637009fa361461013457806379141f801461018757806384f7e4f014610254575b600080fd5b6100ef600480360360208110156100b757600080fd5b8101908080357effffffffffffffffffffffffffffffffffffffffffffffffffffffffffffff19169060200190929190505050610499565b604051808215151515815260200191505060405180910390f35b34801561011557600080fd5b5061011e6105df565b6040518082815260200191505060405180910390f35b34801561014057600080fd5b5061016d6004803603602081101561015757600080fd5b81019080803590602001909291905050506105e9565b604051808215151515815260200191505060405180910390f35b34801561019357600080fd5b506101c0600480360360208110156101aa57600080fd5b81019080803590602001909291905050506105fb565b604051808481526020018373ffffffffffffffffffffffffffffffffffffffff1673ffffffffffffffffffffffffffffffffffffffff168152602001827effffffffffffffffffffffffffffffffffffffffffffffffffffffffffffff19167effffffffffffffffffffffffffffffffffffffffffffffffffffffffffffff19168152602001935050505060405180910390f35b34801561026057600080fd5b50610269610700565b6040518082815260200191505060405180910390f35b34801561028b57600080fd5b50610294610706565b604051808273ffffffffffffffffffffffffffffffffffffffff1673ffffffffffffffffffffffffffffffffffffffff16815260200191505060405180910390f35b3480156102e257600080fd5b5061033b600480360360408110156102f957600080fd5b8101908080357effffffffffffffffffffffffffffffffffffffffffffffffffffffffffffff191690602001909291908035906020019092919050505061072b565b6040518082600281111561034b57fe5b60ff16815260200191505060405180910390f35b34801561036b57600080fd5b506103986004803603602081101561038257600080fd5b8101908080359060200190929190505050610a06565b604051808215151515815260200191505060405180910390f35b610400600480360360208110156103c857600080fd5b8101908080357effffffffffffffffffffffffffffffffffffffffffffffffffffffffffffff19169060200190929190505050610a6a565b604051808215151515815260200191505060405180910390f35b34801561042657600080fd5b5061042f610a87565b005b61047f6004803603602081101561044757600080fd5b8101908080357effffffffffffffffffffffffffffffffffffffffffffffffffffffffffffff19169060200190929190505050611105565b604051808215151515815260200191505060405180910390f35b60006104a3611416565b33816020019073ffffffffffffffffffffffffffffffffffffffff16908173ffffffffffffffffffffffffffffffffffffffff1681525050600343018160000181815250508281604001907effffffffffffffffffffffffffffffffffffffffffffffffffffffffffffff191690817effffffffffffffffffffffffffffffffffffffffffffffffffffffffffffff191681525050806006600060045481526020019081526020016000206000820151816000015560208201518160010160006101000a81548173ffffffffffffffffffffffffffffffffffffffff021916908373ffffffffffffffffffffffffffffffffffffffff16021790555060408201518160010160146101000a81548160ff021916908360f81c02179055509050506004600081548092919060010191905055506001915050919050565b6000600154905090565b60008160038190555060019050919050565b6000806000610608611416565b60066000868152602001908152602001600020604051806060016040529081600082015481526020016001820160009054906101000a900473ffffffffffffffffffffffffffffffffffffffff1673ffffffffffffffffffffffffffffffffffffffff1673ffffffffffffffffffffffffffffffffffffffff1681526020016001820160149054906101000a900460f81b7effffffffffffffffffffffffffffffffffffffffffffffffffffffffffffff19167effffffffffffffffffffffffffffffffffffffffffffffffffffffffffffff1916815250509050806000015193508060200151925080604001519150509193909250565b60035481565b6000809054906101000a900473ffffffffffffffffffffffffffffffffffffffff1681565b600080839050600084905060008460006020811061074557fe5b1a60f81b905060008560016020811061075a57fe5b1a60f81b90506004847effffffffffffffffffffffffffffffffffffffffffffffffffffffffffffff1916901c93506004847effffffffffffffffffffffffffffffffffffffffffffffffffffffffffffff1916901b93506004827effffffffffffffffffffffffffffffffffffffffffffffffffffffffffffff1916901c91506004827effffffffffffffffffffffffffffffffffffffffffffffffffffffffffffff1916901b91506004837effffffffffffffffffffffffffffffffffffffffffffffffffffffffffffff1916901b92506004837effffffffffffffffffffffffffffffffffffffffffffffffffffffffffffff1916901c92506004817effffffffffffffffffffffffffffffffffffffffffffffffffffffffffffff1916901b90506004817effffffffffffffffffffffffffffffffffffffffffffffffffffffffffffff1916901c9050837effffffffffffffffffffffffffffffffffffffffffffffffffffffffffffff1916827effffffffffffffffffffffffffffffffffffffffffffffffffffffffffffff191614801561093e5750827effffffffffffffffffffffffffffffffffffffffffffffffffffffffffffff1916817effffffffffffffffffffffffffffffffffffffffffffffffffffffffffffff1916145b15610950576001945050505050610a00565b837effffffffffffffffffffffffffffffffffffffffffffffffffffffffffffff1916827effffffffffffffffffffffffffffffffffffffffffffffffffffffffffffff191614806109e55750827effffffffffffffffffffffffffffffffffffffffffffffffffffffffffffff1916817effffffffffffffffffffffffffffffffffffffffffffffffffffffffffffff1916145b156109f7576002945050505050610a00565b60009450505050505b92915050565b6000600660008381526020019081526020016000206000808201600090556001820160006101000a81549073ffffffffffffffffffffffffffffffffffffffff02191690556001820160146101000a81549060ff0219169055505060019050919050565b6000610a7582611105565b50610a7e610a87565b60019050919050565b600080610a92611416565b60008060055494505b6004548510156110f75760066000868152602001908152602001600020604051806060016040529081600082015481526020016001820160009054906101000a900473ffffffffffffffffffffffffffffffffffffffff1673ffffffffffffffffffffffffffffffffffffffff1673ffffffffffffffffffffffffffffffffffffffff1681526020016001820160149054906101000a900460f81b7effffffffffffffffffffffffffffffffffffffffffffffffffffffffffffff19167effffffffffffffffffffffffffffffffffffffffffffffffffffffffffffff1916815250509250610b8d83600001516112d6565b915060006002811115610b9c57fe5b826002811115610ba857fe5b1415610fb3576000610bbd8460000151611326565b9050610bcd84604001518261072b565b915060016002811115610bdc57fe5b826002811115610be857fe5b1415610d4157610c0784602001516611c37937e080006001540161134e565b945060006001819055507f8219079e2d6c1192fb0ff7f78e6faaf5528ad6687e69749205d87bd4b156912b86856020015187876040015185600060208110610c4b57fe5b1a60f81b8960000151604051808781526020018673ffffffffffffffffffffffffffffffffffffffff1673ffffffffffffffffffffffffffffffffffffffff168152602001858152602001847effffffffffffffffffffffffffffffffffffffffffffffffffffffffffffff19167effffffffffffffffffffffffffffffffffffffffffffffffffffffffffffff19168152602001837effffffffffffffffffffffffffffffffffffffffffffffffffffffffffffff19167effffffffffffffffffffffffffffffffffffffffffffffffffffffffffffff19168152602001828152602001965050505050505060405180910390a15b60006002811115610d4e57fe5b826002811115610d5a57fe5b1415610ea8576611c37937e080006001600082825401925050819055507f3b19d607433249d2ebc766ae82ca3848e9c064f1febb5147bc6e5b21d0adebc58685602001516000876040015185600060208110610db257fe5b1a60f81b8960000151604051808781526020018673ffffffffffffffffffffffffffffffffffffffff1673ffffffffffffffffffffffffffffffffffffffff168152602001858152602001847effffffffffffffffffffffffffffffffffffffffffffffffffffffffffffff19167effffffffffffffffffffffffffffffffffffffffffffffffffffffffffffff19168152602001837effffffffffffffffffffffffffffffffffffffffffffffffffffffffffffff19167effffffffffffffffffffffffffffffffffffffffffffffffffffffffffffff19168152602001828152602001965050505050505060405180910390a15b600280811115610eb457fe5b826002811115610ec057fe5b1415610fb157610edb84602001516611c37937e0800061134e565b94507f18f858872be35f90fa840903540bf8e5029104060304340a013b93287c7357fe8685602001518787604001518860000151604051808681526020018573ffffffffffffffffffffffffffffffffffffffff1673ffffffffffffffffffffffffffffffffffffffff168152602001848152602001837effffffffffffffffffffffffffffffffffffffffffffffffffffffffffffff19167effffffffffffffffffffffffffffffffffffffffffffffffffffffffffffff191681526020018281526020019550505050505060405180910390a15b505b60016002811115610fc057fe5b826002811115610fcc57fe5b1415610fd7576110f7565b600280811115610fe357fe5b826002811115610fef57fe5b14156110e05761100a83602001516611c37937e0800061134e565b93507f18f858872be35f90fa840903540bf8e5029104060304340a013b93287c7357fe8584602001518686604001518760000151604051808681526020018573ffffffffffffffffffffffffffffffffffffffff1673ffffffffffffffffffffffffffffffffffffffff168152602001848152602001837effffffffffffffffffffffffffffffffffffffffffffffffffffffffffffff19167effffffffffffffffffffffffffffffffffffffffffffffffffffffffffffff191681526020018281526020019550505050505060405180910390a15b6110e985610a06565b508480600101955050610a9b565b846005819055505050505050565b60006611c37937e080003414611183576040517f08c379a000000000000000000000000000000000000000000000000000000000815260040180806020018281038252600e8152602001807f4e6f7420656e6f7567682045544800000000000000000000000000000000000081525060200191505060405180910390fd5b61118c82610499565b6111fe576040517f08c379a00000000000000000000000000000000000000000000000000000000081526004018080602001828103825260158152602001807f4661696c20746f206164642061206e657720426574000000000000000000000081525060200191505060405180910390fd5b7f100791de9f40bf2d56ffa6dc5597d2fd0b2703ea70bc7548cd74c04f5d215ab760016004540333348560034301604051808681526020018573ffffffffffffffffffffffffffffffffffffffff1673ffffffffffffffffffffffffffffffffffffffff168152602001848152602001837effffffffffffffffffffffffffffffffffffffffffffffffffffffffffffff19167effffffffffffffffffffffffffffffffffffffffffffffffffffffffffffff191681526020018281526020019550505050505060405180910390a160019050919050565b600081431180156112ea5750816101000143105b156112f85760009050611321565b8143116113085760019050611321565b6101008201431061131c5760029050611321565b600290505b919050565b6000600260009054906101000a900460ff1661134457600354611347565b81405b9050919050565b60008060009050600081840390508473ffffffffffffffffffffffffffffffffffffffff166108fc829081150290604051600060405180830381858888f193505050501580156113a2573d6000803e3d6000fd5b506000809054906101000a900473ffffffffffffffffffffffffffffffffffffffff1673ffffffffffffffffffffffffffffffffffffffff166108fc839081150290604051600060405180830381858888f1935050505015801561140a573d6000803e3d6000fd5b50809250505092915050565b604051806060016040528060008152602001600073ffffffffffffffffffffffffffffffffffffffff16815260200160007effffffffffffffffffffffffffffffffffffffffffffffffffffffffffffff19168152509056fea265627a7a7231582064e489fd484dee5084c1f55e0e77ed173d378d23c8d1110f65020b13af3d846364736f6c63430005100032",
  "source": "// SPDX-License-Identifier: MIT\r\npragma solidity >=0.4.21 <0.9.0;\r\n\r\n\r\ncontract Lottery {\r\n    struct BetInfo{\r\n        uint256 answerBlockNumber;\r\n        address payable bettor; // 돈 건사람의 주소\r\n        byte challenges;  //oxab bettor들이 보낸값\r\n\r\n    }\r\n    address payable public owner;\r\n    uint256 private _pot;\r\n\r\n    bool private mode =false; //test mode\r\n    bytes32 public answerForTest;\r\n    \r\n    uint256 private _tail;\r\n    uint256 private _head;\r\n    mapping(uint256 => BetInfo) private _bets;\r\n    \r\n    uint256 constant internal BET_BLOCK_LIMIT =256;\r\n    uint256 constant internal BET_BLOCK_INTERVAL =3;\r\n    uint256 constant internal BET_AMOUNT= 5 * 10 ** 15;\r\n\r\n    enum BlockStatus {checkable, NotRevealed, BlcokLimitPassed}\r\n    enum BettingResult{Fail, Win, Draw}\r\n    \r\n    event BET(uint256 index , address bettor, uint256 amount,  byte challenge, uint256 answerBlock);\r\n    event WIN(uint256 index, address bettor, uint amount ,byte challenges , byte answer, uint answerBlockNumber);\r\n    event FAIL(uint256 index, address bettor, uint amount ,byte challenges , byte answer, uint answerBlockNumber);\r\n    event DRAW(uint256 index, address bettor, uint amount ,byte challenges ,uint answerBlockNumber);\r\n    event REFUND(uint256 index, address bettor, uint amount ,byte challenges , uint answerBlockNumber);\r\n\r\n    constructor() public{\r\n        owner=msg.sender;\r\n    }\r\n\r\n    \r\n    function getPot() public view returns(uint256 pot){\r\n        return _pot;\r\n    }\r\n\r\n    function betAndDistribute(byte challenge) public payable returns (bool){\r\n        bet(challenge);\r\n\r\n        distribute();\r\n\r\n        return true;\r\n    }\r\n\r\n    /**\r\n     **@dev 유저는 0.005이더를 보내야하고, 배팅용 1byte 보낸다\r\n     **이후 distribute 함수에서 처리\r\n     */\r\n    function bet(byte challenges) public payable returns (bool){\r\n        //돈이 제대로 왔는지\r\n        require(msg.value== BET_AMOUNT, \"Not enough ETH\");\r\n\r\n        //큐에다가 bet정보 push\r\n        require(pushBet(challenges),\"Fail to add a new Bet\");\r\n\r\n        //emit event\r\n        emit BET(_tail-1, msg.sender, msg.value, challenges, block.number + BET_BLOCK_INTERVAL);\r\n        return true;\r\n    }\r\n\r\n    //정답을 확인할 수 없을때(블록이 아직 생성 안됨)까지 계속 돌림\r\n    function distribute() public{\r\n        uint256 cur;\r\n        uint256 transferAmount;\r\n\r\n        BetInfo memory b;\r\n        BlockStatus currentBlockStatus;\r\n        BettingResult currentBettingResult;\r\n        for(cur=_head; cur<_tail; cur++){\r\n            b = _bets[cur];\r\n            currentBlockStatus = getBlockStatus(b.answerBlockNumber);\r\n            //잘될때\r\n\r\n            if(currentBlockStatus==BlockStatus.checkable){\r\n                bytes32 answerBlockHash = getAnswerBlockHash(b.answerBlockNumber);\r\n                currentBettingResult=isMatch(b.challenges,answerBlockHash);\r\n                \r\n                //if win bettor gets pot\r\n                if(currentBettingResult ==BettingResult.Win){\r\n                    transferAmount = transferAfterPayingFee(b.bettor, _pot+ BET_AMOUNT);\r\n                    _pot =0;\r\n                    emit WIN(cur, b.bettor, transferAmount , b.challenges, answerBlockHash[0], b.answerBlockNumber);\r\n                }\r\n                \r\n                //if fail bettor's money goes pot\r\n                if(currentBettingResult ==BettingResult.Fail){\r\n                    _pot += BET_AMOUNT;\r\n                    emit FAIL(cur, b.bettor, 0 , b.challenges, answerBlockHash[0], b.answerBlockNumber);\r\n                }\r\n\r\n                //if draw refund\r\n                if(currentBettingResult ==BettingResult.Draw){\r\n                    transferAmount = transferAfterPayingFee(b.bettor, BET_AMOUNT);\r\n                    emit DRAW(cur, b.bettor, transferAmount , b.challenges, b.answerBlockNumber);\r\n                \r\n                }\r\n            }\r\n            //마이닝 안될때\r\n            if(currentBlockStatus==BlockStatus.NotRevealed){\r\n                break;\r\n            }\r\n            //256 넘어 갔을 떄\r\n            if(currentBlockStatus==BlockStatus.BlcokLimitPassed){\r\n                //refund\r\n                transferAmount = transferAfterPayingFee(b.bettor, BET_AMOUNT);\r\n                emit DRAW(cur, b.bettor, transferAmount , b.challenges,  b.answerBlockNumber);\r\n                \r\n                //refund emit\r\n            }\r\n\r\n            popBet(cur);\r\n        }\r\n        _head =cur;\r\n\r\n    }\r\n\r\n    function transferAfterPayingFee(address payable addr, uint amount)  internal returns(uint256) {\r\n        uint fee = 0;\r\n        uint256 amountWithoutFee= amount -fee;\r\n\r\n        addr.transfer(amountWithoutFee);\r\n\r\n\r\n        owner.transfer(fee);\r\n\r\n\r\n\r\n        return amountWithoutFee;\r\n    }\r\n\r\n    function setAnswerForTest(bytes32 answer) public returns(bool){\r\n        answerForTest = answer;\r\n        return true;\r\n\r\n    }\r\n    function getAnswerBlockHash (uint answerBlockNmber ) internal view returns (bytes32 ){\r\n        return mode ? blockhash(answerBlockNmber) : answerForTest;\r\n    }\r\n    function isMatch(byte challenges, bytes32 answer) public pure returns(BettingResult ) {\r\n        byte c1= challenges;\r\n        byte c2= challenges;\r\n        byte a1= answer[0];\r\n        byte a2= answer[1];\r\n\r\n        c1 = c1>>4;\r\n        c1 = c1<<4;\r\n\r\n        a1 = a1>>4;\r\n        a1 = a1<<4;\r\n\r\n        c2 = c2<<4;\r\n        c2 = c2>>4;\r\n\r\n        a2 = a2<<4;\r\n        a2 = a2>>4;\r\n\r\n        if(a1 ==c1 && a2 == c2){\r\n            return BettingResult.Win;\r\n        }\r\n\r\n        if(a1 ==c1 || a2 == c2){\r\n            return BettingResult.Draw;\r\n        }\r\n\r\n        return BettingResult.Fail;\r\n    }\r\n\r\n    function getBlockStatus(uint256 answerBlockNumber) internal view returns (BlockStatus) {\r\n        if(block.number > answerBlockNumber && block.number <BET_BLOCK_LIMIT + answerBlockNumber){\r\n            return BlockStatus.checkable;\r\n        }\r\n        if(block.number <= answerBlockNumber){\r\n            return BlockStatus.NotRevealed;\r\n        }\r\n        if(block.number >= answerBlockNumber+ BET_BLOCK_LIMIT){\r\n            return BlockStatus.BlcokLimitPassed;\r\n        }\r\n\r\n        return BlockStatus.BlcokLimitPassed;\r\n    }\r\n\r\n    function getBetInfo(uint index) public view returns (uint256 answerBlockNumber, address bettor, byte challenges) {\r\n        BetInfo memory b =_bets[index];\r\n        answerBlockNumber= b.answerBlockNumber;\r\n        bettor =b.bettor;\r\n        challenges = b.challenges;\r\n\r\n    }\r\n    function pushBet(byte challenges) payable public returns (bool){\r\n         BetInfo memory b;\r\n         b.bettor =msg.sender;\r\n         b.answerBlockNumber =block.number + BET_BLOCK_INTERVAL;\r\n         b.challenges = challenges;\r\n\r\n         _bets[_tail] =b;\r\n         _tail++;\r\n\r\n         return true;\r\n    }\r\n\r\n    function popBet(uint256 index) public returns (bool){\r\n        delete _bets[index];\r\n        return true;\r\n    }\r\n}",
  "sourcePath": "C:/Windows/System32/lottery-smart-contract/contracts/Lottery.sol",
  "compiler": {
    "name": "solc",
    "version": "0.5.16+commit.9c3226ce.Emscripten.clang"
  },
  "schemaVersion": "3.4.1",
  "updatedAt": "2021-06-23T02:57:44.390Z",
  "networkType": "ethereum",
  "devdoc": {
    "methods": {
      "bet(bytes1)": {
        "details": "유저는 0.005이더를 보내야하고, 배팅용 1byte 보낸다**이후 distribute 함수에서 처리"
      }
    }
  },
  "userdoc": {
    "methods": {}
  }
}